:020000040800F2
:1000000000280020291600084D1500084F1500088B
:100010005115000853150008551500080000000090
:10002000000000000000000000000000571500085C
:1000300059150008000000005B1500085D15000858
:100040007116000871160008711600087116000874
:100050007116000871160008711600087116000864
:100060007116000871160008711600087116000854
:100070007116000871160008711600087116000844
:100080007116000871160008711600087116000834
:100090007116000871160008711600087116000824
:1000A0007116000871160008711600087116000814
:1000B00061150008711600080000000071160008A4
:1000C0007116000800000000000000007116000812
:1000D00000000000711600086D1500080000000007
:1000E0007116000871160008711600080000000063
:1000F0000000000000000000000000000000000000
:0C01000000000000000000005FF808F1A3
:1001100010B5054C237833B9044B13B10448AFF341
:1001200000800123237010BDE001002000000000CA
:100130002476000808B5034B1BB103490348AFF30D
:10014000008008BD00000000E401002024760008C3
:10015000034613F8012B002AFBD1181A0138704707
:100160004FF0FF0C1CEAD0521EBF1CEAD15392EA9A
:100170000C0F93EA0C0F6FD01A4480EA010C400276
:1001800018BF5FEA41211ED04FF0006343EA5010D0
:1001900043EA5111A0FB01310CF00040B1F5000F12
:1001A0003EBF490041EAD3715B0040EA010062F1C1
:1001B0007F02FD2A1DD8B3F1004F40EBC25008BFAB
:1001C00020F00100704790F0000F0CF0004C08BFC9
:1001D00049024CEA502040EA51207F3AC2BFD2F196
:1001E000FF0340EAC250704740F400004FF00003A4
:1001F000013A5DDC12F1190FDCBF00F000407047DE
:10020000C2F10002410021FA02F1C2F1200200FA1B
:1002100002FC5FEA310040F1000053EA4C0308BFE2
:1002200020EADC70704792F0000F00F0004C02BF33
:10023000400010F4000F013AF9D040EA0C0093F0AE
:10024000000F01F0004C02BF490011F4000F013B08
:10025000F9D041EA0C018FE70CEAD15392EA0C0F76
:1002600018BF93EA0C0F0AD030F0004C18BF31F0E1
:10027000004CD8D180EA010000F00040704790F0B7
:10028000000F17BF90F0004F084691F0000F91F05B
:10029000004F14D092EA0C0F01D142020FD193EA21
:1002A0000C0F03D14B0218BF084608D180EA0100A9
:1002B00000F0004040F0FE4040F40000704740F085
:1002C000FE4040F44000704781F0004102E000BF72
:1002D00083F0004330B54FEA41044FEA430594EA06
:1002E000050F08BF90EA020F1FBF54EA000C55EA41
:1002F000020C7FEA645C7FEA655C00F0E2804FEA12
:100300005454D4EB5555B8BF6D420CDD2C4480EAF3
:10031000020281EA030382EA000083EA010180EA23
:10032000020281EA0303362D88BF30BD11F0004F71
:100330004FEA01314FF4801C4CEA113102D04042A7
:1003400061EB410113F0004F4FEA03334CEA1333E2
:1003500002D0524263EB430394EA050F00F0A780FA
:10036000A4F10104D5F1200E0DDB02FA0EFC22FAF5
:1003700005F2801841F1000103FA0EF2801843FAE9
:1003800005F359410EE0A5F120050EF1200E012ADA
:1003900003FA0EFC28BF4CF0020C43FA05F3C01818
:1003A00051EBE37101F0004507D54FF0000EDCF191
:1003B000000C7EEB00006EEB0101B1F5801F1BD33A
:1003C000B1F5001F0CD349085FEA30004FEA3C0C3E
:1003D00004F101044FEA445212F5800F80F09A8034
:1003E000BCF1004F08BF5FEA500C50F1000041EB38
:1003F000045141EA050130BD5FEA4C0C404141EB3C
:100400000101013C28BFB1F5801FE9D291F0000F36
:1004100004BF01460020B1FA81F308BF2033A3F1E5
:100420000B03B3F120020CDA0C3208DD02F1140CDC
:10043000C2F10C0201FA0CF021FA02F10CE002F117
:100440001402D8BFC2F1200C01FA02F120FA0CFC10
:10045000DCBF41EA0C019040E41AA2BF01EB045159
:10046000294330BD6FEA04041F3C1CDA0C340EDC57
:1004700004F11404C4F1200220FA04F001FA02F39A
:1004800040EA030021FA04F345EA030130BDC4F158
:100490000C04C4F1200220FA02F001FA04F340EA4D
:1004A0000300294630BD21FA04F0294630BD94F0FE
:1004B000000F83F4801306BF81F480110134013DE5
:1004C0004EE77FEA645C18BF7FEA655C29D094EA56
:1004D000050F08BF90EA020F05D054EA000C04BFD4
:1004E0001946104630BD91EA030F1EBF00210020BF
:1004F00030BD5FEA545C05D14000494128BF41F05E
:10050000004130BD14F580043CBF01F5801130BDC1
:1005100001F0004545F0FE4141F470014FF000004C
:1005200030BD7FEA645C1ABF194610467FEA655CFD
:100530001CBF0B46024650EA013406BF52EA03359F
:1005400091EA030F41F4002130BD00BF90F0000F8D
:1005500004BF0021704730B54FF4806404F13204C9
:100560004FF000054FF0000150E700BF90F0000F82
:1005700004BF0021704730B54FF4806404F13204A9
:1005800010F0004548BF40424FF000013EE700BF79
:1005900042004FEAE2014FEA31014FEA02701FBF09
:1005A00012F07F4393F07F4F81F06051704732F03B
:1005B0007F4208BF704793F07F4F04BF41F4002192
:1005C000704730B54FF4607401F0004521F00041F0
:1005D0001CE700BF50EA010208BF704730B54FF07A
:1005E00000050AE050EA010208BF704730B511F07B
:1005F000004502D5404261EB41014FF4806404F1B3
:1006000032045FEA915C3FF4D8AE4FF003025FEA38
:10061000DC0C18BF03325FEADC0C18BF033202EBBC
:10062000DC02C2F1200300FA03FC20FA02F001FA16
:1006300003FE40EA0E0021FA02F11444BDE600BFB9
:1006400070B54FF0FF0C4CF4E06C1CEA11541DBF68
:100650001CEA135594EA0C0F95EA0C0F00F0DEF833
:100660002C4481EA030621EA4C5123EA4C5350EA18
:10067000013518BF52EA033541F4801143F4801369
:1006800038D0A0FB02CE4FF00005E1FB02E506F0FA
:100690000042E0FB03E54FF00006E1FB03569CF04F
:1006A000000F18BF4EF0010EA4F1FF04B6F5007F55
:1006B00064F5407404D25FEA4E0E6D4146EB0606C7
:1006C00042EAC62141EA55514FEAC52040EA5E5050
:1006D0004FEACE2EB4F1FD0C88BFBCF5E06F1ED8FA
:1006E000BEF1004F08BF5FEA500E50F1000041EB31
:1006F000045170BD06F0004646EA010140EA0200DE
:1007000081EA0301B4EB5C04C2BFD4EB0C0541EAFF
:10071000045170BD41F480114FF0000E013C00F314
:10072000AB8014F1360FDEBF002001F0004170BD38
:10073000C4F10004203C35DA0C341BDC04F1140451
:10074000C4F1200500FA05F320FA04F001FA05F2DD
:1007500040EA020001F0004221F0004110EBD370AA
:1007600021FA04F642EB06015EEA430E08BF20EAD6
:10077000D37070BDC4F10C04C4F1200500FA04F379
:1007800020FA05F001FA04F240EA020001F000410B
:1007900010EBD37041F100015EEA430E08BF20EA7E
:1007A000D37070BDC4F1200500FA05F24EEA020EC6
:1007B00020FA04F301FA05F243EA020321FA04F0F5
:1007C00001F0004121FA04F220EA020000EBD370AC
:1007D0005EEA430E08BF20EAD37070BD94F0000FAC
:1007E0000FD101F00046400041EB010111F4801FE0
:1007F00008BF013CF7D041EA060195F0000F18BF91
:10080000704703F00046520043EB030313F4801FCC
:1008100008BF013DF7D043EA0603704794EA0C0F86
:100820000CEA135518BF95EA0C0F0CD050EA41069C
:1008300018BF52EA4306D1D181EA030101F0004119
:100840004FF0000070BD50EA410606BF1046194641
:1008500052EA430619D094EA0C0F02D150EA01364D
:1008600013D195EA0C0F05D152EA03361CBF10468E
:1008700019460AD181EA030101F0004141F0FE412D
:1008800041F470014FF0000070BD41F0FE4141F4B1
:10089000780170BD70B54FF0FF0C4CF4E06C1CEAB1
:1008A00011541DBF1CEA135594EA0C0F95EA0C0F66
:1008B00000F0A7F8A4EB050481EA030E52EA033521
:1008C0004FEA013100F088804FEA03334FF0805542
:1008D00045EA131343EA12634FEA022245EA11156F
:1008E00045EA10654FEA00260EF000419D4208BF20
:1008F000964244F1FD0404F5407402D25B084FEACD
:100900003202B61A65EB03055B084FEA32024FF478
:1009100080104FF4002CB6EB020E75EB030E22BFD5
:10092000B61A754640EA0C005B084FEA3202B6EB95
:10093000020E75EB030E22BFB61A754640EA5C0044
:100940005B084FEA3202B6EB020E75EB030E22BFD4
:10095000B61A754640EA9C005B084FEA3202B6EBD5
:10096000020E75EB030E22BFB61A754640EADC0094
:1009700055EA060E18D04FEA051545EA16754FEAF6
:1009800006164FEAC30343EA52734FEAC2025FEA14
:100990001C1CC0D111F4801F0BD141EA00014FF0A3
:1009A00000004FF0004CB6E711F4801F04BF014374
:1009B0000020B4F1FD0C88BFBCF5E06F3FF6AFAE90
:1009C000B5EB030C04BFB6EB020C5FEA500C50F120
:1009D000000041EB045170BD0EF0004E4EEA1131A3
:1009E00014EB5C04C2BFD4EB0C0541EA045170BDAA
:1009F00041F480114FF0000E013C90E645EA060EEE
:100A00008DE60CEA135594EA0C0F08BF95EA0C0F1B
:100A10003FF43BAF94EA0C0F0AD150EA01347FF463
:100A200034AF95EA0C0F7FF425AF104619462CE73A
:100A300095EA0C0F06D152EA03353FF4FDAE10469D
:100A4000194622E750EA410618BF52EA43067FF4EE
:100A5000C5AE50EA41047FF40DAF52EA43057FF47E
:100A6000EBAE12E74FF0FF3C06E000BF4FF0010C89
:100A700002E000BF4FF0010C4DF804CD4FEA410CED
:100A80007FEA6C5C4FEA430C18BF7FEA6C5C1BD0BA
:100A900001B050EA410C0CBF52EA430C91EA030F3B
:100AA00002BF90EA020F0020704710F1000F91EA98
:100AB000030F58BF994208BF90422CBFD8176FEA66
:100AC000E37040F0010070474FEA410C7FEA6C5C34
:100AD00002D150EA013C07D14FEA430C7FEA6C5C3B
:100AE000D6D152EA033CD3D05DF8040B704700BF67
:100AF0008446104662468C461946634600E000BFB5
:100B000001B5FFF7B7FF002848BF10F1000F01BD86
:100B10004DF808EDFFF7F4FF0CBF012000205DF851
:100B200008FB00BF4DF808EDFFF7EAFF34BF0120D6
:100B300000205DF808FB00BF4DF808EDFFF7E0FF6F
:100B400094BF012000205DF808FB00BF4DF808EDC0
:100B5000FFF7CEFF94BF012000205DF808FB00BF27
:100B60004DF808EDFFF7C4FF34BF012000205DF809
:100B700008FB00BF4FEA410C7FEA6C5C02D150EAEF
:100B8000013C0AD14FEA430C7FEA6C5C02D152EA85
:100B9000033C02D14FF0000070474FF00100704756
:100BA0004FEA410212F5001215D211D56FF4787395
:100BB000B3EB625212D94FEAC12343F0004343EA38
:100BC000505311F0004F23FA02F018BF4042704713
:100BD0004FF00000704750EA013005D111F000409D
:100BE00008BF6FF0004070474FF00000704700BF33
:100BF0004A0011D212F5001211D20DD56FF478739C
:100C0000B3EB62520ED44FEAC12343F0004343EAF0
:100C1000505323FA02F070474FF00000704750EA3B
:100C2000013002D14FF0FF3070474FF000007047A5
:100C30004FEA4102B2F1E04324BFB3F5001CDCF1FE
:100C4000FE5C0DD901F0004C4FEAC0024CEA507036
:100C5000B2F1004F40EB830008BF20F00100704765
:100C600011F0804F21D113F13872BCBF01F0004068
:100C7000704741F480114FEA5252C2F11802C2F19A
:100C8000200C10FA0CF320FA02F018BF40F001001B
:100C90004FEAC1234FEAD32303FA0CFC40EA0C00CD
:100CA00023FA02F34FEA4303CCE77FEA625307D10A
:100CB00050EA01331EBF4FF0FE4040F44000704741
:100CC00001F0004040F0FE4040F40000704700BFDB
:100CD00080F0004002E000BF81F0004142001FBFF1
:100CE0005FEA410392EA030F7FEA226C7FEA236CFA
:100CF0006AD04FEA1262D2EB1363C1BFD2184140EF
:100D000048404140B8BF5B42192B88BF704710F084
:100D1000004F40F4000020F07F4018BF404211F027
:100D2000004F41F4000121F07F4118BF494292EA8F
:100D3000030F3FD0A2F1010241FA03FC10EB0C00BB
:100D4000C3F1200301FA03F100F0004302D5494248
:100D500060EB4000B0F5000F13D3B0F1807F06D3F5
:100D600040084FEA310102F10102FE2A51D2B1F1ED
:100D7000004F40EBC25008BF20F0010040EA0300E2
:100D80007047490040EB0000013A28BFB0F5000F62
:100D9000EDD2B0FA80FCACF1080CB2EB0C0200FA18
:100DA0000CF0AABF00EBC25052421843BCBFD04067
:100DB0001843704792F0000F81F4000106BF80F4E1
:100DC00000000132013BB5E74FEA41037FEA226CA4
:100DD00018BF7FEA236C21D092EA030F04D092F06F
:100DE000000F08BF0846704790EA010F1CBF0020A3
:100DF000704712F07F4F04D1400028BF40F0004000
:100E0000704712F100723CBF00F50000704700F01F
:100E1000004343F0FE4040F4000070477FEA226246
:100E200016BF08467FEA23630146420206BF5FEA17
:100E3000412390EA010F40F4800070474FF0000317
:100E400004E000BF10F0004348BF40425FEA000CDE
:100E500008BF704743F0964301464FF000001CE086
:100E600050EA010208BF70474FF000030AE000BFDC
:100E700050EA010208BF704711F0004302D540421A
:100E800061EB41015FEA010C02BF8446014600208C
:100E900043F0B64308BFA3F18053A3F50003BCFAA7
:100EA0008CF2083AA3EBC25310DB01FA02FC634454
:100EB00000FA02FCC2F12002BCF1004F20FA02F25B
:100EC00043EB020008BF20F00100704702F120024E
:100ED00001FA02FCC2F1200250EA4C0021FA02F2AF
:100EE00043EB020008BF20EADC7070474FEA400283
:100EF000B2F1FE4F0FD34FF09E03B3EB12620DD948
:100F00004FEA002343F0004310F0004F23FA02F0B1
:100F100018BF404270474FF00000704712F1610F58
:100F200001D1420205D110F0004008BF6FF000402F
:100F300070474FF00000704738B50C460546214613
:100F4000284600220023FFF7EDFD28B92846214658
:100F5000BDE8384000F00AB8284604F1004100F02E
:100F600005F8404261EB410138BD00BFD0B5002219
:100F70000B4B06460F46FFF763FBFFF739FE0446AF
:100F8000FFF7E4FA0022074BFFF75AFB02460B4635
:100F900030463946FFF79CF9FFF72AFE2146D0BDBF
:100FA0000000F03D0000F0410378522B08D1437857
:100FB000532B05D18078A0F1540358425841704713
:100FC0000020704703784F2B05D14078A0F14B03E8
:100FD0005842584170470020704700001B4B10B525
:100FE0001A681C46012A09D0022A14D02AB9184AC4
:100FF0001278212A01D101221A6010BD144A1178F9
:101000002129FAD02329134A1BD013781248C1543E
:1010100001331370F1E71048FFF7C6FF012807D12D
:1010200008220E4B1A7000F0AFF900232360E4E7AA
:101030000948FFF7C7FF012802BF0922074B1A70B2
:10104000F3E7022119600023E3E700BF3C02002020
:101050005C020020050200205D0200200602002044
:1010600070B52A4C2378082B02D0092B42D070BDD2
:10107000274C236893B9274800F044FBFFF766FA32
:101080000022254BFFF7DCFA244B0022FFF7D8FAA9
:10109000FFF7CEFD224B186001232360214D2B6802
:1010A000012BE4D11E4B1E683046FFF71FFF04469C
:1010B000FFF7C8FE01463046FFF70EFE1A49FFF75C
:1010C0004FF8FFF713FF224603461849184802F06D
:1010D00019FD1748FFF73CF84FF4FA7382B2144930
:1010E000144801F03CFC4FF4967000F04DF90023D9
:1010F0002B60BCE70025064B07221D600E494FF40C
:10110000FA730C4801F02BFC2570B0E706020020B2
:10111000FC01002080020020000014400000303F4D
:1011200000020020440200200000C842407600086F
:1011300008020020F8020020507600080268104BD8
:1011400010B59A421BD10F4C4FF4FA73214601227D
:101150000D4801F004FC0D4A207813780C49C8545E
:101160000133DBB21E2B08BF002313700122094B91
:1011700004491A700448BDE8104001F00ABE10BDD1
:10118000004400405C020020F8020020070200201A
:10119000600200200402002030B595B02422002116
:1011A0000BA801F031FE1422102500210DEB0200E6
:1011B00001F02AFE00212A4601A801F025FE0224A2
:1011C00001230AA8CDE90E350A9400F015FE014668
:1011D00008B172B6FEE70F23CDE90700CDE905306F
:1011E000099005A800F0CAFF08B172B6FEE70390A7
:1011F00001A8019401F07EF808B172B6FEE715B0BF
:1012000030BD000080B588B000F058FAFFF7C4FF89
:10121000102200210DEB020001F0F6FD4F4B2021C2
:101220009A694F4842F004029A619B69002203F0D8
:10123000040301930127019B00F0D0FD202300252A
:10124000CDE904370223464804A9464CCDE90653AC
:1012500000F0EEFC444B204623604FF46023CDE9C0
:1012600004550695A56027732575E36165602761C0
:1012700000F08EFB08B172B6FEE7CDE904070690D8
:1012800004A9204600F042FA054608B172B6FEE70E
:10129000102201460DEB020001F0B6FD41F63F734E
:1012A0004FF08041314ECDE90255C6E900130923C4
:1012B0003046C6E90335B560B56101F089F908B17A
:1012C00072B6FEE74FF48053304604A9049301F050
:1012D000B5F908B172B6FEE7CDE9020002A93046C1
:1012E00001F048FA08B172B6FEE74FF41653204DEC
:1012F000204AC5E90200C5E900230C232861C5E99D
:101300000530E861284601F0FBFA08B172B6FEE745
:10131000304601F067F83A461749284601F039FD92
:10132000204600F0ADFA322000F038F8134D0C4E94
:10133000134C2B68012B06D13046202100F053FDC1
:10134000322000F02BF82378012B03D1FFF746FE63
:1013500000232370FFF784FEEBE700BF001002407C
:10136000000801408002002000240140B00200205B
:10137000F8020020004400405C0200204C020020E3
:101380000402002000F014B80022024B1860024B47
:101390001A60704740020020440200200022024BE5
:1013A0001860024B1A607047480200204C0200206F
:1013B0000A4A1368002B05DD013B136013B90122B3
:1013C000074B1A60074A1368002B05DD013B1360C9
:1013D00013B90122044B1A60704700BF400200207D
:1013E00044020020480200204C0200200E4B82B034
:1013F0009A6942F001029A619A6902F00102009230
:10140000009ADA6942F08052DA61DB69074A03F038
:1014100080530193019B536823F0E06343F08063A2
:10142000536002B0704700BF00100240000001404E
:1014300010B5044686B01022002102A801F0E4FC99
:101440002268104B9A421BD103F56C439A690E48EF
:1014500042F400729A619A6902A902F40072009241
:10146000009A9A6942F004029A619B69012203F092
:1014700004030193019B0323CDE9022300F0D8FB71
:1014800006B010BD0024014000080140036807B504
:10149000B3F1804F15D103F50433DA691C2042F013
:1014A0000102DA610022DB69114603F001030193B6
:1014B000019B00F0FDFA1C2003B05DF804EB00F086
:1014C00029BB03B05DF804FB10B5044686B01022BA
:1014D000002102A801F098FC22681A4B9A422FD1F1
:1014E00003F5E633DA69184842F40032DA61DA6962
:1014F00002A902F400320092009A9A69002442F094
:1015000004029A619B69042203F004030193019B86
:101510000223CDE902230323059300F089FB08236E
:1015200009480DEB0301CDE90234049400F080FB7F
:1015300026202246214600F0BBFA262000F0EAFAD7
:1015400006B010BD0044004000080140FEE7FEE781
:10155000FEE7FEE7FEE770477047704700F0C0B84F
:10156000014800F069BF00BFB0020020014801F04F
:10157000ADBA00BFF80200200120704708B501F0A5
:1015800019FC162303604FF0FF3008BD08B501F0C9
:1015900011FC16230360FEE770B50E4614460025C5
:1015A000A54201DB204670BDAFF3008070550135C8
:1015B000F6E770B50E4614460025A54201DB20462D
:1015C00070BD705DAFF300800135F6E74FF0FF307E
:1015D00070474FF4005300204B6070470120704764
:1015E000002070470B4B0246196810B509B90A492B
:1015F0001960186809490A4C0244091B8A4206D935
:1016000001F0D8FB0C2303604FF0FF3010BD1A60CF
:10161000FCE700BF500200205803002000280020F3
:101620000004000070470000FFF7FCFF0B480C4966
:101630000C4A002302E0D458C4500433C4188C422E
:10164000F9D3094A094C002301E013600432A24295
:10165000FBD301F0B5FBFFF7D5FD7047000000207C
:10166000E0010020447B0008E0010020540300203A
:10167000FEE7000038B50E4B054618784FF47A7334
:10168000B3FBF0F30B4A1068B0FBF3F000F050FA34
:10169000044658B90F2D09D8024629464FF0FF30AD
:1016A00000F006FA2046044B1D6038BD0120FCE71F
:1016B000040000200000002008000020074A08B5B0
:1016C0001368032043F01003136000F0DFF90F20CC
:1016D000FFF7D0FFFFF78AFE002008BD0020024080
:1016E000034A044B11681B780B441360704700BF1A
:1016F0004003002004000020014B1868704700BF21
:10170000400300200368D86C70470000002373B5C5
:10171000019390F824300446012B6CD0012380F80B
:1017200024304D680268062D086805EB850322D831
:101730001F26556B053B9E4025EA060500FA03F37C
:101740002B43536309288B6800EB40054FF00701DA
:1017500029D9D6681E3DA94026EA0101AB400B43BA
:10176000D360A0F11003012B25D90020002384F8B9
:10177000243002B070BD0C2D4FF01F0509D8166B38
:10178000233B9D4026EA050500FA03F32B43136330
:10179000D8E7D66A413B9D4026EA050500FA03F3E7
:1017A0002B43D362CEE71069A94020EA0101AB4088
:1017B0000B431361D9E7114B9A4216D193681B0270
:1017C000D3D49368102843F400039360CDD10C4B1D
:1017D0000C4A1B68B3FBF2F20A2353430193019BAB
:1017E000002BC2D0019B013BF8E7A36A012043F024
:1017F0002003A362BAE70220BBE700BF0024014038
:101800000000002040420F00002337B50193036819
:1018100004469A68D20702D5002003B030BD9A680A
:1018200042F001029A60144B144A1B68B3FBF2F3B6
:101830000193019BE3B9FFF75FFF054623689B68AF
:10184000DB07E9D4FFF758FF401B0228F6D92368CD
:101850009B6813F00103F1D1A26A012042F010024B
:10186000A262E26A84F8243042F00102E262D4E724
:10187000019B013BDCE700BF0000002040420F005D
:1018800010B590F824300446012B54D0012380F881
:101890002430FFF7B9FF002849D1A36A274A23F46F
:1018A000407323F0010343F48073A36223689342DF
:1018B00004D123494A6812F4702F2ED1A26A22F46F
:1018C0008012A2625A68520541BFA26A22F44052B5
:1018D00042F48052A262A26A12F480521CBFE26AF1
:1018E00022F00602E262002284F824206FF0020255
:1018F0001A609A6802F46022B2F5602F13D10F4A81
:10190000934205D1A2F58062526812F4702F0AD179
:101910009A6842F4A0029A6010BDA26A42F4801252
:10192000A2624A68CFE79A6842F48012F3E7002384
:1019300084F82430F0E70220EEE700BF00280140E1
:101940000024014038B5036804469A68D10701D4E1
:10195000002038BD9A6822F001029A60FFF7CCFEA1
:10196000054623689B68DB07F2D5FFF7C5FE401BE1
:101970000228F6D923689B68DA07F2D5A36A01200A
:1019800043F01003A362E36A43F00103E362E0E77C
:10199000F8B5044600286ED0836A23B9C36280F884
:1019A0002430FFF745FD2046FFF7CCFFA36A13F074
:1019B000100362D1002860D1A26AE569616822F44F
:1019C000885222F0020242F002022943A568A26274
:1019D000227BB5F5807F41EA420137D0012D14BF4B
:1019E00000274FF48077267D012E06D182BBA269A5
:1019F000013A47EA423646F400672268B5F5807F2F
:101A0000566826F4694646EA0706566097681D4EF2
:101A100006EA070646EA0106966001D0012D02D1CA
:101A20002369013B1B05D56A25F470052B43D3625E
:101A30009268154B1340994213D10023E362A36AC5
:101A400023F0030343F00103A362F8BD2F46CAE766
:101A5000A26A42F02002A262E26A42F00102E2625D
:101A6000CBE7A36A23F0120343F01003A362E36AF7
:101A700043F00103E3620120E7E7A36A43F01003A8
:101A8000A362F8E7FDF7E1FFFE0E1FFF074903021F
:101A9000CA6803F4E06322F4E0621204120C1343F8
:101AA00043F0BF6343F40033CB60704700ED00E0C8
:101AB000164B30B5DC68C4F30224C4F10703251DBE
:101AC000042B28BF0423062D4FF0FF3598BF0024B8
:101AD00005FA03F388BF033C21EA0303A34005FA98
:101AE00004F422EA0402002843EA0203ACBF00F136
:101AF0006040074A4FEA0313DBB2ABBF00F5614019
:101B000000F00F0080F80033135430BD00ED00E00A
:101B100014ED00E0002808DB0123420900F01F005B
:101B200003FA00F0014B43F82200704700E100E0A7
:101B30000138B0F1807F0AD2F021064B064A586086
:101B400082F823100020072298601A607047012055
:101B5000704700BF10E000E000ED00E090F8213099
:101B6000022B06D004238363002380F82030012059
:101B700070470368C16B1A6822F00E021A601A6877
:101B800022F001021A600122036C02FA03F34B6097
:101B9000002380F8212080F820301846704700008C
:101BA00010B590F82130022B03D004238363012069
:101BB00010BD03681A6822F00E021A601A6822F03B
:101BC00001021A60184A93421FD0143293421ED069
:101BD000143293421DD0143293421DD014329342DA
:101BE0001DD0143293420CBF4FF480134FF080731A
:101BF0000E4A00245360012380F82130436B80F8A3
:101C000020407BB198472046D2E70123F0E710231C
:101C1000EEE74FF48073EBE74FF48053E8E74FF4BF
:101C20008033E5E71846C3E70800024000000240A1
:101C30002DE9F74F00221646604BDFF894C1DFF81C
:101C400094E10D6835FA06F402D103B0BDE8F08FD7
:101C50004FF0010808FA06F805EA080438EA050515
:101C600078D14D68032D07D8013D022D00F2828006
:101C7000DFE805F091969C00122D00F094806BD85F
:101C8000112D00F08A80FF2C98BF82464FF00F097B
:101C900088BF00F1040A4FEA8605DAF8008088BFA1
:101CA000203D09FA05FB28EA0B0802FA05F548EA87
:101CB0000505CAF80050D1F804A01AF0805F49D099
:101CC0003F4F26F00308BD6908F1804845F0010543
:101CD000BD61BD6908F5803805F00105019506F084
:101CE000030B019D4FEA8B0BD8F8085009FA0BF94A
:101CF00025EA0909334DA8425CD005F58065A84264
:101D00005AD005F58065A8420CBF0225032505FAC7
:101D10000BF545EA0905C8F808509D681AF4801FBC
:101D200014BF2543A5439D60DD681AF4001F14BF4E
:101D30002543A543DD605D681AF4003F14BF2543C9
:101D4000A5435D601D681AF4803F14BF2C4325EA4B
:101D500004041C60013674E71B4FBD420AD015D83D
:101D6000754507D0DFF870904D4503D0A9F580196F
:101D70004D4588D18A68DAB1012A08BFC0F81080C1
:101D80004FF0080218BFC0F814807CE70F4FBD4227
:101D9000F0D06545EDE7CA6875E7CA68043272E7B6
:101DA000CA6808326FE7CA680C326CE700226AE73B
:101DB000042268E70025AAE70125A8E700040140FE
:101DC0000010024000080140000022100000311005
:101DD0000000321000001210000021100AB1016151
:101DE00070470904FBE7C36801EA030221EA030123
:101DF00041EA0241016170472DE9F341054638B3DC
:101E00000368DB0710D42B689F075ED42B68190783
:101E100000F195802B685A0700F1BF80E86900281F
:101E200040F02C81002029E08F4C636803F00C0304
:101E3000042B07D0636803F00C03082B0AD16368F6
:101E4000DE0307D523689C03DDD56B68002BDAD150
:101E5000012013E06B68B3F5803F12D1236843F48F
:101E600080332360FFF748FC064623689803CAD4F2
:101E7000FFF742FC801B6428F7D9032002B0BDE8BD
:101E8000F0819BB9236823F480332360236823F413
:101E900080232360FFF730FC064623689903B2D500
:101EA000FFF72AFC801B6428F7D9E6E7B3F5A02FDB
:101EB000236803D143F480232360CFE723F48033E6
:101EC0002360236823F48023CBE7674C636813F017
:101ED0000C0F07D0636803F00C03082B10D1636864
:101EE000DA030DD423689B0702D52B69012BAFD1F0
:101EF00023686A6923F0F80343EAC203236085E795
:101F00002A695A4B6AB101221A60FFF7F5FB0646AF
:101F100023689F07ECD4FFF7EFFB801B0228F7D95B
:101F2000ABE71A60FFF7E8FB0646236898077FF5E2
:101F30006DAFFFF7E1FB801B0228F6D99DE7AA6988
:101F4000494E4B4BDAB101221A60FFF7D5FB04462C
:101F5000736A9B070DD54FF4FA52464B1B68B3FBCF
:101F6000F2F3019300BF019B5A1E0192002BF9D19D
:101F700050E7FFF7C1FB001B0228E9D97DE71A6093
:101F8000FFF7BAFB0446736A9F077FF543AFFFF77D
:101F9000B3FB001B0228F6D96FE7334CE369D80086
:101FA00024D40127E36943F08053E361E36903F03C
:101FB00080530093009B304E3368D90518D5EB68E9
:101FC000012B26D1236A43F001032362FFF794FB20
:101FD00041F288380646236A9B073FD5002F3FF41D
:101FE0001DAFE36923F08053E36117E70027E2E7C1
:101FF000336843F480733360FFF77EFB80463368B9
:10200000DA05DCD4FFF778FBA0EB08006428F6D9EA
:1020100033E7ABB9236A41F2883823F00103236226
:10202000236A23F004032362FFF766FB0646236A54
:102030009807D3D5FFF760FB801B4045F7D91CE715
:10204000052B236A03D143F004032362BAE723F08C
:1020500001032362236A23F00403B6E7FFF74CFB76
:10206000801B4045B7D908E70010024000004242FB
:102070008004424200000020007000402A4B5A6851
:102080001C4602F00C02082A3DD00023274E0228ED
:1020900033602BD1FFF730FB0746236899011FD42B
:1020A0002B6AB3F5803F05D16268A96822F400323B
:1020B0000A436260696A62680B4322F47412134334
:1020C000636001233360FFF717FB054623689A011D
:1020D0003FF5A8AEFFF710FB401B0228F6D9CCE66F
:1020E000FFF70AFBC01B0228D7D9C6E6FFF704FB9F
:1020F000054623689B017FF595AEFFF7FDFA401B6F
:102100000228F6D9B9E601283FF4B8AE5B682A6A1E
:1021100003F4803191427FF49BAE6A6A03F470133A
:1021200093423FF47FAE93E60010024060004242CB
:102130000D494B6803F00C02082A12D10B48C3F377
:102140008342DB03825C09D509484B685043094A46
:10215000C3F34043D35CB0FBF3F0704706485043F1
:1021600070470348704700BF0010024070760008B7
:1021700000127A008076000800093D002DE9F04148
:102180000D46044610B90120BDE8F081444A1368A9
:1021900003F007038B4228D321688E0730D4CA0787
:1021A00043D43F4A136803F00703AB4265D8226863
:1021B0003C4D12F0040F6CD1130706D56B682269F1
:1021C00023F4605343EAC2036B60FFF7B1FF6B680F
:1021D000354AC3F30313D35CD840344B1860344BF7
:1021E0001868FFF747FA0020CEE7136823F00703CB
:1021F0000B431360136803F007038B42C3D1CBE793
:10220000284B11F0040F1EBF5A6842F4E0625A6076
:10221000080742BF5A6842F460525A605A68A06880
:1022200022F0F00202435A60B9E762681D4E012AAB
:1022300033681AD113F4003FA5D0736841F288388F
:1022400023F0030313437360FFF756FA07467368DE
:10225000626803F00C03B3EB820FA2D0FFF74CFAD5
:10226000C01B4045F3D903208EE7022A02D113F0A8
:10227000007FE1E713F0020FDEE7136823F00703A6
:102280002B431360136803F00703AB427FF47BAF6B
:102290008DE76B68E16823F4E0630B436B608BE7C9
:1022A0000020024000100240587600080000002084
:1022B00008000020044B054A5B68C3F30223D35C8B
:1022C000034A1068D8407047001002406876000842
:1022D00000000020044B054A5B68C3F3C223D35CB3
:1022E000034A1068D8407047001002406876000822
:1022F0000000002003682DE9F341D907054620D5E9
:10230000354CE369DA0032D40127E36943F08053A6
:10231000E361E36903F080530193019B2F4E33681F
:10232000DB0526D5236A13F4407336D1236A6A6825
:1023300023F44073134323621FB1E36923F08053F6
:10234000E3612868830706D52349AB684A6822F40D
:1023500040421A434A6010F010001BD01E4AE96840
:102360005368002023F480030B43536012E00027DE
:10237000D4E7336843F480733360FFF7BDF98046D8
:102380003368D805CED4FFF7B7F9A0EB080064286E
:10239000F6D9032002B0BDE8F0816A6802F4407209
:1023A0009A42C3D001200E4A236A1060002023F411
:1023B000407110602162D907B8D5FFF79DF941F24D
:1023C00088380646236A9A07B0D4FFF795F9801B30
:1023D0004045F7D9DDE700BF001002400070004023
:1023E0004004424290F83D30012B1CD1022380F87A
:1023F0003D300368DA6842F00102DA600B4A93422A
:1024000006D0B3F1804F03D0A2F59432934204D1A9
:102410009A6802F00702062A03D01A6842F0010205
:102420001A60002070470120704700BF002C014057
:102430007047704770477047036870B5DD681E6964
:102440000446B1070DD5AA070BD56FF002021A6139
:10245000012202779B699B0769D0FFF7EAFF0023FF
:102460002377710710D56A070ED56FF00402236831
:1024700020461A61022222779B6913F4407F5CD0C8
:10248000FFF7D7FF0023237733070FD528070DD594
:102490006FF00802236820461A6104222277DB6964
:1024A000990750D0FFF7C5FF00232377F20610D518
:1024B000EB060ED56FF01002236820461A61082241
:1024C0002277DB6913F4407F43D0FFF7B2FF00238C
:1024D0002377F00708D5E90706D56FF001022368D6
:1024E00020461A61FEF74EFF320608D52B0606D5A8
:1024F0006FF08002236820461A6100F066F97006CA
:1025000008D5690606D56FF04002236820461A6197
:10251000FFF791FFB20622D5AB0620D56FF020025F
:1025200023682046BDE870401A6100F04DB9FFF7FE
:102530007FFF2046FFF77EFF91E7FFF779FF2046F8
:10254000FFF778FF9EE7FFF773FF2046FFF772FF64
:10255000AAE7FFF76DFF2046FFF76CFFB7E770BDF6
:10256000194A10B59042036805D0B0F1804F02D0EF
:10257000164CA04210D14C6823F07003904243EAFD
:10258000040305D0B0F1804F02D0104A904203D12D
:10259000CA6823F4407313434A6923F0800313434A
:1025A00003608B68C3620B688362074B984204BF69
:1025B0000B690363012343610369DB0742BF0369BE
:1025C00023F00103036110BD002C01400004004012
:1025D00010B5044630B390F83D3003F0FF021BB94C
:1025E00080F83C20FEF752FF0223206884F83D303B
:1025F000211DFFF7B5FF0123002084F8463084F841
:102600003E3084F83F3084F8403084F8413084F81C
:10261000423084F8433084F8443084F8453084F8FC
:102620003D3010BD0120FCE710B584680A4324F456
:102630007F4442EA03222243826010BD70B590F8C5
:102640003C300446012B4FF0020300F09180012240
:1026500080F83D3080F83C200068836823F47F4395
:1026600023F0770383600B68602B52D033D8402B64
:1026700067D016D8202B0DD00AD833F0100109D01E
:10268000012384F83D30002384F83C30104670BDAF
:10269000302BF5D1826822F07002134343F0070318
:1026A00017E0502BECD14A68CE68016A056A21F028
:1026B0000A0125F00105056283690A4323F0F0034E
:1026C00043EA061383610262836823F0700343F0D8
:1026D0005703836011E0B3F5805F0ED0B3F5005F60
:1026E0000DD0702BCCD1CB68D1E90121FFF79CFF35
:1026F0002268936843F0770393600022C0E7CB68B9
:10270000D1E90121FFF790FF2268936843F48043E9
:10271000F2E7036A4D68CE68016A23F0A00321F056
:1027200010010162826943EA051322F4704242EA11
:10273000063282610362836823F0700343F067030B
:10274000C7E74A68CE68016A056A21F00A0125F0E8
:102750000105056283690A4323F0F00343EA061387
:1027600083610262836823F0700343F04703B0E79C
:102770001A468BE730B590F83C200346012A4FF00B
:1027800002001ED01A6883F83D0054680D6824F0DA
:1027900070042C43906854600A4CA24206D0B2F1F7
:1027A000804F03D0A4F59434A24204D1496820F0AC
:1027B0008000014391600122002083F83D2083F8CE
:1027C0003C0030BD002C014070477047026802F1A8
:1027D0000C0353E8003F23F490730C3242E80031BD
:1027E00002680029F2D102F1140353E8003F23F0FC
:1027F000010302F1140C4CE800310029F3D1036B02
:10280000012B0BD102F10C0353E8003F23F010031E
:1028100002F10C0C4CE800310029F3D1202380F8A0
:10282000423000230363704710B504460368C16853
:102830001A6922F440520A431A6182680069D96811
:102840000243606921F4B05121F00C0102430A43B4
:10285000DA605A69A16922F440720A435A610E4A49
:10286000934215D1FFF736FD192343436268206870
:102870009200B3FBF2F36422B3FBF2F102FB1133DB
:102880001B013233B3FBF2F303EB0113836010BD82
:10289000FFF710FDE8E700BF00380140F7B5044638
:1028A0000D4617461E462268136835EA030301D118
:1028B000002021E0701CF7D0FEF71EFFC01B8642EF
:1028C0001CD3DEB12368DA685107ECD5802DEAD03D
:1028D000402DE8D01A681207E5D5002501951A6841
:1028E000204601925B680193019BFFF76FFF08236D
:1028F0000120636484F8405003B0F0BD0320FBE77F
:1029000010B5044648B390F8413003F0FF021BB9FC
:1029100080F84020FEF7D8FD2423226884F8413057
:10292000D368204623F40053D360FFF77DFF23686C
:1029300000201A6922F490421A615A6922F02A0290
:102940005A61DA6842F40052DA602023606484F845
:10295000413084F84230606310BD0120FCE72DE96E
:10296000F843994690F841300446202B0E4617460E
:102970003FD100293FD0002A3DD0212300254564C6
:1029800080F84130FEF7B8FEA3688046B3F5805F5B
:10299000A784E78403D123690BB935461E46E38C2F
:1029A0009BB25BB94B46424640212046FFF776FF7B
:1029B000202384F8413058B9BDE8F8834B4642469D
:1029C00080212046FFF76AFF20B1202384F84130A0
:1029D0000320F1E722684EB935F8023BC3F3080340
:1029E0005360E18C013989B2E184D8E716F8013BE4
:1029F000F6E70220E0E70120DEE77047704708B500
:102A00000023406AC385C384FFF7F8FF08BD704701
:102A100013B590F84230222B54D18168836AB1F506
:102A2000805F02683ED1016900293ED15268C2F33D
:102A3000080223F8022BC48D8362013CA4B2C48532
:102A4000002C2DD10368DA6822F02002DA60DA68FF
:102A500022F48072DA605A6922F001025A6120235E
:102A600080F842304463036B012B036827D1046371
:102A700003F10C0252E8002F22F0100203F10C04C3
:102A800044E800210029F3D11A68D20605D5019146
:102A90001A6801925B680193019B818DFFF7B7FF74
:102AA000002010E039B9016929B95268D2B21A7010
:102AB000836A0133BFE7526802F07F02F7E7FEF74F
:102AC0003DFBEDE7022002B010BD0000036837B502
:102AD0001A68044612F00F0FD9685D6908D195068F
:102AE00068D58D0666D503B0BDE83040FFF790BFCE
:102AF00005F0010001F4907505435BD0D50705D5BD
:102B0000CB0542BF636C43F001036364550704D5F2
:102B100018B1636C43F002036364930704D518B1E2
:102B2000636C43F004036364150707D501F02003C9
:102B300003431EBF636C43F008036364636C002BA4
:102B400032D0900604D58A0602D52046FFF760FFF2
:102B5000236820465B69656C03F0400305F00805B7
:102B60001D4323D0FFF732FE226853695B0618D558
:102B700002F1140353E8003F23F0400302F1140074
:102B800040E800310029F3D1E06B50B1734B43634F
:102B9000FFF706F840B1E06B436B03B0BDE830408F
:102BA00018472046FFF72AFF03B030BDFFF726FF86
:102BB0006564F9E7206B012840F09480D50640F168
:102BC0009180C80640F18E80002201921A6801921D
:102BD0005A680192019A5A6955064DD5E16B0A6807
:102BE000526892B2002ADFD0A08D9042DCD9E285F3
:102BF0008A69202A36D003F10C0252E8002F22F411
:102C0000807203F10C0040E800210029F3D103F1A8
:102C1000140252E8002F22F0010203F1140040E8F0
:102C200000210029F3D103F1140252E8002F22F011
:102C3000400203F1140040E800210029F3D12022D2
:102C400084F84220216303F10C0252E8002F22F0A5
:102C5000100203F10C0040E800210029F3D1E06BE1
:102C6000FEF77CFF02236363E38DA18DC91A89B24D
:102C70002046FFF7CCFE97E7E18D8AB2E18D89B25D
:102C8000002991D0A18D891A89B200298CD003F135
:102C90000C0252E8002F22F4907203F10C0545E873
:102CA00000200028F3D103F1140252E8002F22F093
:102CB000010203F1140545E800200028F3D1202289
:102CC00084F84220206303F10C0252E8002F22F026
:102CD000100203F10C0545E800200028F3D102237F
:102CE0006363C5E7100628D50D0626D594F8412064
:102CF000212A7FF459AFA168226AB1F5805F17D10C
:102D00002169A9B932F8021BC1F308015960226296
:102D1000E28C013A92B2E284002A7FF445AFDA688D
:102D200022F08002DA60DA6842F04002DA603BE7C3
:102D3000511C216212785A60EAE750067FF534AFE1
:102D40004A067FF531AFDA68204622F04002DA60A9
:102D5000202384F84130FFF750FE25E7FF290008C3
:102D60000023C285436422238285026980F84230B1
:102D7000816203681AB1DA6842F48072DA605A69D3
:102D8000002042F001025A61DA6842F02002DA6063
:102D9000704770B490F84260202E06D141B13AB12C
:102DA0000024046370BCFFF7DBBF022070BC7047D7
:102DB0000120FBE7014B1868704700BF0C000020A2
:102DC00070B500260C4D0D4C641BA410A64209D111
:102DD00004F028FC00260A4D0A4C641BA410A642ED
:102DE00005D170BD55F8043B98470136EEE755F81C
:102DF000043B98470136F2E73C7B00083C7B000827
:102E00003C7B0008407B000803460244934200D10B
:102E1000704703F8011BF9E7002B2DE9F0471F4627
:102E2000BBBF03F100431F4600232D2388B0144687
:102E3000129A109D1370149BDDF84CA023F020080B
:102E4000B8F1460F05D0B8F1450F00D10135022386
:102E500000E0032307AA049206AACDE902A2CDE965
:102E6000003522463B4601F09FFDB8F1470F06466C
:102E700002D1119BDB0722D5B8F1460F06EB0509FD
:102E800010D13378302B0AD1002200232046394656
:102E9000FDF73EFE18B9C5F10105CAF80050DAF891
:102EA000003099440022002320463946FDF730FEC9
:102EB00008B1CDF81C903022079B4B4507D3304614
:102EC000079B159A9B1B136008B0BDE8F087591C3F
:102ED00007911A70F0E70346F7B5002903F8022BB3
:102EE000B6BF2D222B224942092942702BDD0DF15C
:102EF0000704A4460A2791FBF7F60A46A64607FBF5
:102F00001615632A05F13005314604F1FF340EF839
:102F1000015CF0DC3031AEF1020504F8011C2946F9
:102F2000441C61450AD30DF10902A2EB0E0265456E
:102F300088BF00221344181A03B0F0BD11F8012B0A
:102F400004F8012FEDE7302330318370C170031D89
:102F5000F1E700002DE9F04F91B00C46DDF86880F4
:102F600016461F46054602F073FE0368184609938D
:102F7000FDF7EEF800230E93D8F800300A900733DF
:102F800023F0070303F1080294F81890D4F800B076
:102F9000C8F80020D3E90023C4E91223D4E9128A37
:102FA0002AF000430B934FF0FF3240469C4B0B99A5
:102FB000FDF7E0FD70BB4FF0FF324046984B0B9998
:102FC000FDF7BAFD30BB0022002340465146FDF715
:102FD000A9FD10B12D2384F84330924B9248B9F1EA
:102FE000470F94BF9846804603234FF0000A2361A1
:102FF0002BF00403236033462146284600970FAA8E
:1030000000F0D4F9013040F090804FF0FF3011B063
:10301000BDE8F08F4246534640465146FDF7AAFDB3
:1030200048B1BAF1000FB8BF2D238048B8BF84F86B
:1030300043307F4BD3E7636809F0DF015A1C42D16C
:1030400006236360002206920EAACDE904920DAA1F
:103050004BF4806303920DF13302CDE9013223601A
:10306000636842460093284653460B91FFF7D4FE0F
:103070000B99804647290D9908D1C81C02DB63686B
:10308000994240DDA9F102095FFA89F9B9F1650FAA
:103090001FD84A46013904F150000D91FFF71BFF7C
:1030A0000E9A82461318012A236102DC2268D20795
:1030B00001D5013323619DF83330002B9BD02D23A4
:1030C00084F8433097E74729BCD1002BBAD10123BC
:1030D000B7E7B9F1660F18D1002963680BDD2161EC
:1030E00013B92268D00702D501330B4423614FF096
:1030F000000AA165DFE713B92268D20701D50233C0
:10310000F4E70123F2E74FF067090E9B994205DBD4
:1031100023682161D807EAD54B1CE7E70029CCBF1B
:103120000122C1F102021344E0E723685A0507D4E3
:103130002369424631462846B84701302BD164E71F
:10314000B9F1650F40F2DD80D4E9120100220023BD
:10315000FDF7DEFC002833D0012331462846354AEE
:10316000B84701303FF451AFDDE90D239A4202DB4D
:103170002368D8070FD5DDE9092331462846B8472B
:1031800001303FF442AF4FF0000804F11A090E9BE2
:10319000013B434509DC23689B0700F10281E0689D
:1031A0000F9B9842B8BF184631E701234A46314683
:1031B0002846B84701303FF428AF08F10108E6E798
:1031C0000D9B002B38DC012331462846194AB847AD
:1031D00001303FF41AAFDDE90D23134302D1236818
:1031E000D907D8D5DDE9092331462846B84701304B
:1031F0003FF40BAF4FF0000904F11A0A0D9B5B423C
:103200004B4501DC0E9B94E701235246314628468C
:10321000B84701303FF4F9AE09F10109EEE700BF0C
:10322000FFFFEF7F887600088C7600089476000810
:1032300090760008987600080E9AA36D9A42A8BF6F
:103240001A46002A914637DC4FF0000B29EAE9794B
:1032500004F11A02D4F858A0AAEB09035B4533DC49
:10326000DDE90D239A423BDB2368DA0738D40E9A56
:103270000D99A2EB0A03A2EB01099945A8BF994653
:10328000B9F1000F34DC4FF0000829EAE97904F1C4
:103290001A0ADDE90D239B1AA3EB090343457FF7C7
:1032A0007AAF0123524631462846B84701303FF4F1
:1032B000ACAE08F10108ECE7134631464246284619
:1032C000B8470130C0D1A0E60123314628460B9211
:1032D000B84701303FF499AE0B9A0BF1010BB9E7F7
:1032E0003146DDE909232846B8470130BFD18CE6D5
:1032F0004B463146284608EB0A02B8470130C2D196
:1033000083E60E9A012A01DCDB0737D5012342460A
:1033100031462846B84701303FF477AEDDE909234E
:1033200031462846B84701303FF46FAED4E9120168
:1033300000220023FDF7ECFBD8B90E9B08F1010237
:10334000013B31462846B84701300ED15DE60123E6
:103350004A4631462846B84701303FF456AE08F198
:1033600001080E9B013B4345F1DC534604F150023A
:10337000E0E64FF0000804F11A09F2E701234246A3
:10338000DFE701234A4631462846B84701303FF47B
:103390003CAE08F10108E3680F995B1A4345F0DC85
:1033A000FDE64FF0000804F11909F4E72DE9F047B4
:1033B000164699468A680B6907469342B8BF13467A
:1033C000336091F843200C46DDF820800AB10133C8
:1033D00033602368990642BF33680233336025683F
:1033E00015F0060506D104F1190AE36832689B1A44
:1033F000AB4228DC94F84320131E226818BF012337
:1034000092062DD44946384604F14302C0470130A4
:1034100020D02368E56803F00603042B18BF0025BD
:1034200032684FF00006A36808BFAD1A226908BFD2
:1034300025EAE5759342C4BF9B1AED181A34B542CC
:103440001AD1002008E00123524649463846C047B9
:10345000013003D14FF0FF30BDE8F0870135C4E7FC
:103460003020E11881F843005A1C94F8451022449A
:10347000023382F84310C5E7012322464946384605
:10348000C0470130E6D00136D9E700002DE9FF47FB
:103490000C46277E9146782F80469A460C9904F177
:1034A000430207D8622F0AD8002F00F0D980582F86
:1034B00000F0A48004F1420684F842703AE0A7F1DB
:1034C0006303152BF6D801A050F823F0253500082A
:1034D00039350008B5340008B5340008B5340008A3
:1034E000B534000839350008B5340008B534000893
:1034F000B5340008B53400084736000869350008BF
:1035000029360008B5340008B534000869360008CB
:10351000B534000869350008B5340008B534000832
:10352000313600080B6804F142061A1D1B680A6058
:1035300084F842300123A4E0256808682E0600F1D3
:1035400004030AD505680B60002D03DA2D236D42B4
:1035500084F843300A235E4819E015F0400F0568EF
:103560000B6018BF2DB2EFE70B682568181D0860C7
:10357000280601D51D6802E06906FBD51D886F2F5E
:103580000CBF08230A235248002184F843106668C0
:10359000002EA8BF2168A660A4BF21F0040121600D
:1035A0000DB9002E4DD01646B5FBF3F103FB1157B4
:1035B000C75D06F8017D2F46BB420D46F4D9082BA6
:1035C0000BD12368DF0708D5236961689942DEBF04
:1035D000302306F8013C06F1FF36921B22614B4670
:1035E00021464046CDF800A003AAFFF7DFFE0130D8
:1035F0004CD14FF0FF3004B0BDE8F087344884F878
:1036000045700E68236856F8045B1F060E6014D5DB
:10361000D90744BF43F0200323601DB9236823F07A
:10362000200323601023AFE7236843F020032360C7
:103630007823284884F84530E3E75E0648BFADB2FA
:10364000E6E71646BBE70B6826681D1D60690D603E
:1036500035061B6801D5186002E07106FBD518809D
:10366000002316462361BAE70B681A1D0A601E681C
:1036700000213046626802F009FB08B1801B6060DF
:1036800063682361002384F84330A8E73246494643
:1036900040462369D0470130ABD023689B0713D441
:1036A000E068039B9842B8BF1846A4E7012332465E
:1036B00049464046D04701309BD00135E368039925
:1036C0005B1AAB42F2DCEBE7002504F11906F5E7E3
:1036D0009A760008AB7600082DE9F04F87B0039387
:1036E0008B6817465A1EB2F5AE7F85BF6FF4AE7574
:1036F0005B190023029388BF40F25D138B464FF0A5
:1037000000058CBF8B6002930B68804643F4F06326
:103710004BF81C3B0C465E46AA46A946CDE904552B
:103720000195A26852B13B681B784E2B64D8402BA0
:103730003CD8A3F12B01C8B20E283AD9B9F1000F39
:1037400003D0236823F4807323600AF1FF3ABAF1AF
:10375000010F00F213815E4500F205810125284624
:1037600007B0BDE8F08FA3F161020D2AE6D801A1F0
:1037700051F822F0B33800083D3700083D37000803
:103780003D37000813390008EB3800083D370008C2
:103790003D370008C13800083D3700083D370008B4
:1037A0003D3700083D37000879380008A3F1410291
:1037B000DBE70E29C2D801A050F821F06B380008D1
:1037C0003D3700086B380008FF3800083D37000817
:1037D00019380008553800085538000855380008D1
:1037E0005538000855380008553800085538000885
:1037F00055380008553800086E2B09D8602BB2D810
:10380000542B77D0592B99D1072D97D1082529E032
:10381000742B6FD0792BF6E72168C8051AD5029B67
:1038200021F08001216009F101091BB1013B013246
:103830000293A260A368013BA36023690133236163
:103840007B68013B002B7B6040F384803B68013345
:103850003B6066E71AEB050F7FF470AF226822F435
:10386000C072226006F8013BE4E7226810067FF58B
:1038700065AF22F08002F4E7BAF1000F0ED1B9F182
:10388000000F0ED1226802F4E061B1F5E06F08D1BB
:1038900022F4F0624FF0010A2260E3E7BAF1020F6E
:1038A00055D0012D02D0042D7FF448AF0135EDB283
:1038B000D8E7BAF1010F7FF441AF4FF0020AD1E728
:1038C0007DB9B9F1000F7FF43CAF226802F4E061EA
:1038D000B1F5E06F7FF439AF22F4F0620125226088
:1038E000C0E7032DE2D0052DDEE7022D7FF426AFE1
:1038F0000325B7E7062D7FF421AF0725B2E722683D
:1039000091057FF51BAF22F420722260CDF8049060
:10391000A8E7226802F4A061B1F5806F06D05005D7
:103920007FF50CAFB9F1000F3FF40FAF910558BF11
:10393000019922F4F06258BFA9EB010142F4C07270
:103940004FF0000958BFCDE9041622608AE74FF016
:10395000030A87E739464046D4F880319847002863
:103960003FF4DFAEEAE6D4F87C313A46404616F83A
:10397000011D98472369013B2361ECE66B1E062B72
:1039800025D8022D36D85E457FF6E8AED4F87C31D6
:103990003A46404616F8011D98472369013B2361CA
:1039A000F1E70298D4F87C3110F8011D3A460290F4
:1039B000404698472369013B23610AF1FF3A5FFAC9
:1039C0008AFABAF1020FECD1033DEDB2761B2368FF
:1039D000DA052FD55B0510D55E457FF6BFAED4F86E
:1039E0007C313A46404616F8011D98472369013B51
:1039F0002361F1E7AA460296DFE716F8011C236966
:103A0000652903F1FF3306F1FF3523610CD0452909
:103A10000AD0D4F87C313A4640469847236916F8D4
:103A2000021C013BB51E23613A464046D4F87C3166
:103A300098472E46256815F0100559D13570236832
:103A400003F4C063B3F5806F1CD1019B4B45A3EB1E
:103A5000090224D100225946404600F089FED4F8DC
:103A600000C0039B1CF0020F06460F461B6821D0C6
:103A700003991A1D0A601B68C3E90067E3680133F4
:103A8000E3606CE6049B002BE4D005990A232A46E8
:103A90004046013100F0F8FE049B059EC21A04F274
:103AA0006F139E4228BF04F5B7763046114900F0E7
:103AB00029F8CFE71CF0040F03F1040E03D003999B
:103AC000C1F800E0D7E7039AC2F800E0D3F800801D
:103AD00002460B46FDF74EF828B1074800F00EF8F5
:103AE000C8F80000CAE730463946FDF7A1F8F7E705
:103AF000002534E6BC760008577600080048704779
:103B00000000C07F0EB46FF0004100B59CB01DAB4B
:103B100002900690079104910848094953F8042B34
:103B20000591006802A9019302F094FE0022029B15
:103B30001A701CB05DF804EB03B070470C00002055
:103B40000802FFFF2DE9F0410F46904602F02AFCE3
:103B500004460D46B8F1000F11D0C7F30A53C3F164
:103B60006B03002B0BDD00241B0503F17F5505F5CE
:103B7000401522462B46FCF763FD04460D462046C1
:103B80002946BDE8F08100002DE9F04F9B46002357
:103B9000A1B01C93A14B82461F680E46384617926F
:103BA000FCF7D6FA4FF0000804464FF000091B96C8
:103BB0001B9B1A782B2A4CD03AD80D2A33D8082AC6
:103BC00033D8002A3DD000230C931B9D2B78302B3B
:103BD00040F0AF806B7803F0DF03582B6CD10C9B67
:103BE000504601931CAB00938D4ACDF808B01DAB35
:103BF0001BA901F02FFD10F00706044605D0062E84
:103C000029D1002301351B950C93179B002B40F005
:103C100096850C9BD3B1424609F1004310461946E4
:103C200021B0BDE8F08F202ACDD101331B93BFE72F
:103C30002D2AC8D101220C925A1C1B925B78002BB2
:103C4000C3D1179B1B96002B40F0778542464B460D
:103C5000E4E70022EFE71C9A3AB135211EA802F0F2
:103C6000A5FC50461C9902F06DF8013E052E07D8C0
:103C7000DFE806F00E0B181D0E034FF00009C846D2
:103C80002107C2D549F00049BFE7DDE91E89F7E702
:103C90001D9ADDE91E8302F2334223F4801343EAC6
:103CA0000259EDE74FF00008DFF87891E8E76FF090
:103CB00000494FF0FF38E3E71B9B5A1C1B925B78CF
:103CC000302BF9D0002BA0D0012307931B9B0A2295
:103CD000089300239B46CDE905331B980578A5F191
:103CE0003003D9B2092926D92246394602F0C8FE46
:103CF000002832D000202B465C4602460490652BFB
:103D000001D0452B13D11CB9079B034399D0002444
:103D10001B9E731C1B9373782B2B78D02D2B7BD081
:103D20000027A3F13001092940F282801B9600256B
:103D30009EE00023C9E7BBF1080FD5BF069905999E
:103D400002FB013302FB013300F10100D4BF0693F3
:103D500005930BF1010B1B90BFE71B9B1A191B92DC
:103D60001B5DBBF1000F36D05C460490A3F130021E
:103D7000092A12D90122C2E71B9B01305A1C1B924F
:103D80005B78302BF8D0A3F13102082A00F2DC84F2
:103D90000490002004461B9A0892303B00F1010277
:103DA00013D0049905191144049122460A21AA420C
:103DB00013D12218082A04F1010404441BDC0A224E
:103DC000069902FB0133069300221B9B1046591CE7
:103DD0001B915B78CAE75846D3E7082A04DC069FA4
:103DE0004F4306970132E2E7571C102FDEBF059FB5
:103DF0004F430597F6E7102CDFBF0A22059902FB17
:103E000001330593E0E70023012204937CE70027B8
:103E1000B31C1B93B37884E70127F9E718790008EE
:103E2000C47600080000F07F1B9B591C1B915B7837
:103E3000302BF9D0A3F1310108293FF678AF4FF0CC
:103E40000A0EA3F1300C1B9B09931B9B591C1B9161
:103E50005B78A3F13005092D35D9099D491B082947
:103E600044F61F6502DC6545A8BF654607B16D4293
:103E7000002C4CD1079901437FF4C7AE002A7FF490
:103E8000E0AE692B26D023DC492B23D04E2B7FF4C8
:103E9000D8AE9C491BA801F02BFE00283FF4D1AE00
:103EA0001B9B1B78282B2CD197491EAA1BA801F01D
:103EB00033FE052825D11F9BDDF8788043F0FF49AC
:103EC00049F4E009A1E60EFB0C3CACF1300CBCE778
:103ED0006E2BDCE78D491BA801F00AFE00283FF499
:103EE000B0AE1B9B8A49013B1BA81B9301F000FE4F
:103EF00010B91B9B01331B934FF00008DFF8209291
:103F000083E6844802F0A6FD804689467DE6049B50
:103F1000BBF1000F08BFA346EB1A102C06982646EB
:103F20000793A8BF1026FCF711FB092C8046894691
:103F300013DD794B03EBC60353E91223FCF780FB37
:103F4000804605988946FCF701FB02460B46404631
:103F50004946FCF7BFF9804689460F2C36DC079BA3
:103F6000002B3FF452AE22DD162B09DC6A4C424690
:103F700004EBC3044B46D4E90001FCF761FBC3E743
:103F8000079AC4F12503934220DB634DC4F10F046B
:103F900005EBC4014246D1E900014B46FCF750FB5A
:103FA000079B1C1B05EBC405D5E90023E5E7079B30
:103FB00016330BDB049B584A5D1B02EBC5054046DC
:103FC000D5E900234946FCF765FC9DE7079BA61B46
:103FD0001E44002E71DD16F00F030AD04E494246F2
:103FE00001EBC301D1E900014B46FCF729FB8046F8
:103FF000894636F00F0650D0B6F59A7F27DD4FF090
:10400000000BCDF810B0CDF820B0CDF818B02223B9
:104010004FF00008DFF80891CAF80030089B002B29
:104020003FF4F3AD50461C9901F08CFE50460699C2
:1040300001F088FE5046049901F084FE504608992C
:1040400001F080FE5946504601F07CFEDDE500237C
:10405000404649461F463611012E21DC0BB18046F1
:1040600089462E4BA9F1547903EBC7074246D7E99D
:1040700000014B46FCF7E4FA294B0A460B4029495C
:1040800080468B42BBD8A1F580118B4286BF4FF092
:10409000FF38DFF8949002F15479002305937EE015
:1040A000F20707D51D4B03EBC703D3E90023FCF749
:1040B000C7FA012301377610CEE7EED0764216F02C
:1040C0000F020AD0144B404603EBC2034946D3E922
:1040D0000023FCF7DFFB804689463611DDD01F2E1A
:1040E00024DD4FF0000BCDF810B0CDF820B0CDF8A6
:1040F00018B022234FF000084FF00009CAF8003032
:104100008CE700BF95760008D87600088D76000809
:104110001C78000857760008B879000890790008E4
:104120000000F07F0000A07CFFFFEF7F16F010037F
:1041300018BF6A234046059349460023B24FF20751
:1041400004D5D7E90023FCF77BFA0123761007F1A9
:104150000807F4D10BB180468946059BBBB1C9F372
:104160000A53C3F16B03002B494610DD1F2B40F3AC
:104170002B81342BD8BF4FF0FF324FF00008CFBF58
:104180004FF05C79203B02FA03F303EA01090022B5
:10419000002340464946FCF7BBFC0028A1D1069B02
:1041A0005A46009350462346089901F037FE08907E
:1041B00000283FF424AF049B4FF0000B5D1B079BCE
:1041C000CDF810B0002BB4BF2B4600230E93079BF5
:1041D00023EAE3731693089B5046596801F072FD79
:1041E000069000283FF413AF089B0C301A6903F1C6
:1041F0000C010232920001F057FD1EAB01931DAB82
:10420000009342464B465046CDE90A8902F044F9F4
:104210001C9000283FF4FBAE0121504601F096FEB1
:104220000346049000283FF4F2AE1D9D1E9A002D17
:10423000ABBF0E9B169BEE185C1B059BA8BF169C84
:10424000A5EB03051544714B05F1FF35B8BF0E9E74
:104250009D42C2F1360280F2C9805B1B1F2B4FF0DA
:104260000107A2EB030200F3B680002507FA03F36F
:104270000F93B718059BBE4214441C443346A8BF95
:104280003B46A342A8BF2346002BC2BFFF1AE41A35
:10429000F61A0E9B002B17DD1A465046049901F0C2
:1042A0000FFF049000283FF4B2AE01461C9A50461E
:1042B00001F062FE099000283FF4A9AE50461C9917
:1042C00001F040FD099B1C93002F00F39380079B96
:1042D000002B08DD5046169A069901F0F1FE069073
:1042E00000283FF494AE002C08DD22465046069983
:1042F00001F040FF069000283FF489AE002E08DD53
:1043000032465046049901F035FF049000283FF4EE
:104310007EAE5046069A1C9901F0B4FF83460028F1
:104320003FF475AE0024C3680499C4600D9301F096
:104330008DFFA04270DA0D9B53EA080340F096808F
:10434000C9F31303002B40F0918029F000431B0DAB
:104350001B05B3F1D66F40F28980DBF8143023B926
:10436000DBF81030012B40F3818059460122504682
:1043700001F000FF0499834601F068FF002875DD15
:1043800005994B46224A002900F0918002EA090172
:10439000B1F1D66F00F38B80B1F15C7F7FF7A9AEEE
:1043A00000231C4A4046CDE914324946DDE9142376
:1043B000FCF746F90B46034308BF22238046894693
:1043C00008BFCAF800302DE64FF0FF3202FA03F3BF
:1043D00003EA0808DBE6C5F17F4505F57F0505F52D
:1043E0007B45E23507FA05F50F9742E701230025E3
:1043F0000F933EE73A4650461C9901F0BBFE1C90D5
:1044000000287FF464AF02E6F076000802FCFFFFAC
:104410000000F07F00005039CDF8249066D10D9A4D
:10442000C9F313035AB39C4A93422CD1059B4046CF
:1044300003B34B46994A4FF0FF311A40B2F1D46FA3
:104440001BD8120DC2F16B0301FA03F398421AD183
:10445000934B099A9A4202D101303FF4D8AD4FF004
:1044600000088E4B099A1A4002F58019059B002B13
:1044700096D1D7E54FF0FF33E8E70B46E6E753EA7E
:1044800008033FF47DAFE5B1099B1D42EED00D9BC3
:1044900040464946059AC3B1FFF754FB02460B4616
:1044A000DDE90A01FBF716FF80468946DEE7134087
:1044B000A3F580136FEA13594FF0FF386FEA0959DB
:1044C000D4E70F9B13EA080FE0E7FFF73BFB024638
:1044D0000B46DDE90A01FBF7FBFE002200238046C4
:1044E0008946FCF715FB0028C0D002E6584604991F
:1044F00002F02EF800224FF0804306460F46FCF7EC
:104500001BFB002875D00D9B002B47D00026654F64
:10451000644D099B23F000431B0D1B050F930F9A5D
:10452000614B9A4240F0C880DDE90A23CDE91423AB
:10453000099B4046A3F15479494601F033FF0246F6
:104540000B4630463946FCF77BF842464B46FBF7B4
:10455000C1FE0B465149554A1940914280465ED9E9
:104560000B9B02F15472934203D10A9B01333FF437
:104570004EAD4FF0FF38DFF8289150461C9901F0FE
:10458000E1FB5046069901F0DDFB5046049901F02D
:10459000D9FB5946504601F0D5FB1CE6B8F1000F97
:1045A00019D1099BC3F31303E3B9002230463946FE
:1045B0003C4BFCF7B7FAC8B90022304639463C4BB1
:1045C000FCF73EF804460D4605F100431894199394
:1045D000DDE918679DE7B8F1010F03D1099B002BB6
:1045E0003FF487AD00260024324F91E70D9C304DFB
:1045F000EAE72F4B002230463946FCF721F80D9BA5
:1046000004460D4633B901F1004310901193DDE9E2
:1046100010677EE702460B46CDE91023F7E703F16A
:104620005479059B002BA8D129F000430F9A1B0D4C
:104630001B059A42A1D120462946FCF77DFCFBF7D9
:10464000D1FF02460B4620462946FBF741FE0D9A54
:10465000C9F3130343EA0803134304460D4666D027
:1046600009A3D3E90023FCF75DFA00287FF4DAAC54
:1046700007A3D3E9002320462946FCF771FA002856
:104680003FF47BAFCEE400BF9535A094FFFFDF3F42
:1046900035E5AF350000E03FFFFF0F000000F07F81
:1046A000FFFFEF7F0000F03F0000E07FFFFF9F7CF7
:1046B0000000E03F0000F0BF059B13B30F9BB3F178
:1046C000D46F1ED826A3D3E9002320462946FCF741
:1046D00033FA90B129462046FCF78AFA012838BF00
:1046E0000120FBF733FF0D9B04460D46D3B901F1C2
:1046F000004312901393DDE912670F9A07F1D66316
:104700009F1ADDE90A0101F04DFE02460B463046D4
:104710003946FBF795FFDDE90A23FBF7DBFD804611
:1047200089467EE702460B46CDE91223E3E70EA356
:10473000D3E90023FCF7F6F9A1E700230C931B9BB8
:10474000179A1360FFF765BA652B3FF45CAB452BF6
:104750003FF459AB0122FFF78DBB00BFAFF30080E0
:104760000000C0FFFFFFDF419535A094FFFFCF3F62
:10477000014BFFF709BA00BF74000020012B2DE99F
:10478000F047864601D0242B06D9FEF713FB1623EB
:1047900003600020BDE8F0878C463A4E60461CF866
:1047A000014BA55D15F00805F8D12D2C33D14FF044
:1047B00001089CF8004000F1020C002B5DD0102B8A
:1047C0000CD1302C0AD19CF8000000F0DF005828F2
:1047D0004ED110239CF801400CF1020C002508F189
:1047E0000047013FB7FBF3F9284603FB197AA4F110
:1047F0003006092E18D83446A34224DD002D1FDBD5
:1048000081451DD301D1A2451ADB012500FB0340E0
:104810001CF8014BEBE72B2C08BF9CF80040A84686
:1048200008BF00F1020CC8E7A4F14106192E01D817
:10483000373CE1E7A4F16106192E04D8573CDBE7C9
:104840004FF0FF35E4E7002D08DA22233846CEF892
:104850000030002A9ED00CF1FF3107E0B8F1000FC4
:1048600000D04042002A95D0002DF4D1116091E78C
:104870003024002BB2D10823B0E7302CA3D00A2378
:10488000ACE700BF19770008FFF778BF2DE9F74FB5
:1048900003690C690746A342C0F28380013C00F122
:1048A000140501F1140805EB8403019358F8243032
:1048B00055F8242001339A42B2FBF3F64FEA840BF9
:1048C00008EB840932D34FF0000E4046AC46F24666
:1048D00050F8042B93B206FB03E3120C4FEA134E7D
:1048E00006FB02E29BB2AAEB0303DCF800A04FEA4E
:1048F000124E1FFA8AFA53441FFA82FADCF800209B
:104900008145CAEB124202EB23429BB243EA0243C7
:104910004FEA224A4CF8043BDAD255F80B302BB957
:10492000019B043B9D421A462FD33C61384601F05F
:104930008DFC002825DB28464FF0000C013658F886
:10494000041BD0F800E08BB2ACEB03031FFA8EF22D
:1049500013440A0CC2EB1E4202EB23429BB243EA11
:104960000243C1454FEA224C40F8043BE7D255F8D8
:10497000242005EB840322B9043B9D421A460AD346
:104980003C61304603B0BDE8F08F1268043B002A5A
:10499000CBD1013CC6E71268043B002AF0D1013CB0
:1049A000EBE70020EEE700002DE9F04F16461F462A
:1049B000446A99B00546CDE90467DDF8948074B97E
:1049C000102001F049F90246686220B9EA21AE4B95
:1049D000AE4802F075F8C0E901440460C4606B6A37
:1049E000196851B15A68012393404A608B60284688
:1049F00001F0A8F900226B6A1A603B1EAFBF0023CA
:104A0000012223F000430593A8BFC8F80030DDF869
:104A100014909F4BB8BFC8F8002033EA090319D19E
:104A200042F20F73249A1360C9F31303334300F067
:104A30008085269B53B9974B22E0974B0893083308
:104A4000269A1360089819B0BDE8F08F914B08932F
:104A50000333F5E7DDE90434CDE90C34DDE90C017D
:104A600000220023FCF754F8804658B10123249A11
:104A70001360269B002B00F0598588481860431E60
:104A80000893DFE716AB019317AB00932846DDE9E7
:104A90000C2301F001FDC9F30A548246002C7ED09C
:104AA000DDE90C010D9BA4F2FF34C3F3130343F0C3
:104AB0007F5141F44011CDF84C800022784BFBF738
:104AC00007FC6BA3D3E90023FBF7BAFD6AA3D3E984
:104AD0000023FBF7FFFB064620460F46FBF746FD8B
:104AE00067A3D3E90023FBF7ABFD02460B46304634
:104AF0003946FBF7EFFB06460F46FCF751F800225C
:104B00008146002330463946FCF70CF848B1484648
:104B1000FBF72CFD32463B46FBF7FAFF08B909F1DB
:104B2000FF39B9F1160F57D8DDE90C015D4B03EBE6
:104B3000C903D3E90023FBF7F5FF00284ED000237B
:104B400009F1FF390F93169B1C1B631E099349BF84
:104B5000C4F1010300230693002354BF0693099375
:104B6000B9F1000F3CDB099BCDF838904B44099319
:104B700000230A93229B092B6CD8052BC4BF043B4E
:104B80002293229BC8BF0024A3F10203D8BF0124B3
:104B9000032B00F28B80DFE803F02D4F4D5BDDE946
:104BA00016431C4404F23243202BC3BFC3F140031D
:104BB00004F2124009FA03F3C3F12003C6BF26FA38
:104BC00000F0184306FA03F0FBF7C0FC0123A1F143
:104BD000F871013C139370E70123B3E70F90B2E73C
:104BE000069BA3EB09030693C9F100030A93002374
:104BF0000E93BFE700230B93239B002B59DC4FF050
:104C0000010B5B46CDF808B0CDF88CB00022686A85
:104C10004260042202F114069E4241684FD92846A0
:104C200001F050F8089000284DD102464FF4D5719C
:104C30001D4BCDE60123DEE700230B93239B09EBFD
:104C4000030B0BF10103012B0293B8BF0123DDE736
:104C50000123F2E7012400230B9422934FF0FF3B42
:104C600000221223CDF808B02392CFE7AFF30080E3
:104C700061436F63A787D23FB3C8608B288AC63F62
:104C8000FB799F501344D33F267800083D780008F5
:104C90000000F07F22780008197800089976000853
:104CA0000000F83FB87900089C78000801230B93B6
:104CB000D4E7DDF88CB05B46CDF808B0A6E701314B
:104CC00041605200A6E76B6A089A1A60029B0E2B9D
:104CD00000F2A880002C00F0A580B9F1000F34DDAF
:104CE0009A4A09F00F0302EBC30319F4807FD3E95A
:104CF0000034CDE910344FEA291416D0DDE90C0157
:104D0000934B0327D3E90823FBF7C4FDCDE9040146
:104D100004F00F048E4E54B9DDE91023DDE90401DF
:104D2000FBF7B8FDCDE9040129E00227F2E7E1072E
:104D300008D5DDE91001D6E90023FBF781FCCDE9B8
:104D40001001013764100836E5E700F0A580DDE9C1
:104D50000C01C9F100047D4B04F00F0203EBC20308
:104D6000D3E90023FBF76CFC02270023CDE9040103
:104D7000774E2411002C40F08480002BD2D10F9B61
:104D8000002B00F08B80DDE90434CDE91034DDE93F
:104D9000100100226F4BFBF7C5FE00287ED0029B5E
:104DA000002B7BD0BBF1000F38DDDDE910010022C4
:104DB000694BFBF745FC5C46CDE9040109F1FF387E
:104DC00001373846FBF7D2FBDDE90423FBF738FC5B
:104DD0000022624BFBF77EFAA1F15076CDE910017B
:104DE0001196002C5DD1DDE9040100225C4BFBF73C
:104DF0006FFA02460B46CDE904233346109AFBF7BF
:104E0000AFFE002840F09E82DDE90401109A06F111
:104E10000043FBF787FE002840F09282DDE90C3466
:104E2000CDE90434179B002BC0F25381B9F10E0F6A
:104E300000F34F81454B03EBC903D3E90034CDE9BF
:104E40000634239B002B80F2DB80029B002B00F3B7
:104E5000D78040F07482DDE906010022404BFBF769
:104E6000EFFBDDE90423FBF771FE029C26460028D8
:104E700040F04A823123089F09F1010907F8013BFC
:104E800046E2E20705D5D6E90023FBF7D9FB01236B
:104E90000137641008366DE7022770E7C846029CA8
:104EA0008FE70899294B214412910B9903EBC40316
:104EB000DDE9106753E90223002955D00020294974
:104EC000FBF7E8FC3B463246FBF702FACDE910015E
:104ED000089FDDE90401FBF763FE0446FBF746FB90
:104EE00002460B46DDE90401FBF7F2F902460B46E8
:104EF0003034CDE90423DDE9102307F8014BFBF73B
:104F000011FE002874D1DDE9042300201149FBF7CC
:104F1000DFF9DDE91023FBF705FE002840F0B6803D
:104F2000129B9F423FF47AAFDDE9100100220A4B49
:104F3000FBF786FB0022CDE91001DDE90401064BF9
:104F4000FBF77EFBCDE90401C3E700BFB879000899
:104F5000907900080000F03F0000244000001C4051
:104F6000000014400000E03F30463946FBF768FB84
:104F7000129BCDE91001089C1493DDE90401FBF7B5
:104F80000FFE1590FBF7F2FA02460B46DDE904012D
:104F9000FBF79EF9159B0646303304F8013B129B44
:104FA0000F469C424FF0000224D1DDE91001B34BC3
:104FB000FBF790F902460B4630463946FBF7D0FD29
:104FC000002862D1DDE910230020AC49FBF780F90D
:104FD00002460B4630463946FBF7A4FD00283FF455
:104FE0001DAF149F7B1E149317F8013C302BF8D093
:104FF000C1463AE0A24BFBF723FBCDE90401BCE735
:10500000089FDDE90623DDE90401FBF743FCFBF71C
:10501000C7FD0446FBF7AAFADDE90623FBF710FB00
:1050200004F130060B460246DDE90401FBF750F9B6
:1050300007F8016B089E029BBE1BB3423AD10246A1
:105040000B46FBF747F902460B46CDE90223DDE9A3
:105050000623FBF785FD58BBDDE90623DDE90201E8
:10506000FBF756FD08B1E10722D42846514600F06F
:1050700069FE00233B70249B09F101001860269B08
:10508000002B3FF4DFAC1F60DCE427463B461F46A5
:1050900013F8012D392A07D1089A9A42F7D1302204
:1050A000089908F101080A701A7801321A709FE70E
:1050B000C846EBE70022724BFBF7C2FA02460B46EA
:1050C000CDE9042300220023FBF722FD002898D01D
:1050D000CBE70B9A002A00F0CD80229A012A00F338
:1050E000AF80139A002A00F0A78003F233430A9C92
:1050F000069F069A01211A440692099A28461A44E4
:10510000099200F023FF0646002F0CDD099B002BBF
:1051100009DDBB42A8BF3B46069AFF1AD21A069287
:10512000099AD31A09930A9BF3B10B9B002B00F049
:10513000A980002C10DD31462246284600F0C0FF31
:10514000524601460646284600F016FF8046514664
:10515000284600F0F7FDC2460A9B1A1B04D05146B0
:10516000284600F0ADFF82460121284600F0EEFE01
:105170000E9B0446002B40F387801A4601462846C2
:1051800000F09EFF229B0446012B40F380804FF0ED
:105190000008236904EB8303186900F089FEC0F15D
:1051A0002000099B184410F01F0000F09280C0F10D
:1051B0002003042B40F38A80C0F11C00069B0744A7
:1051C00003440693099B03440993069B002B05DDCA
:1051D00051461A46284600F0CDFF8246099B002B17
:1051E00005DD21461A46284600F0C4FF04460F9B01
:1051F000002B70D02146504601F028F800286ADACA
:10520000002351460A22284600F0BEFD0B9B824631
:1052100009F1FF39002B00F09381314600230A2267
:10522000284600F0B1FDBBF1000F064600F3938065
:10523000229B022B57DC8EE0169BC3F1360356E708
:10524000029B5C1E0A9BA342B7BF0A9B1C1BE21A6F
:105250000E9BBEBF0A949B180E93029BB8BF0024FE
:10526000002BBBBF069B029A069F9F1AACBF029BF6
:1052700000233EE70A9C069F0B9E45E70000E03FA7
:10528000000024400A9A6AE7229B012B19DC049B48
:10529000BBB9059BC3F313039BB9059B23F00043E4
:1052A0001B0D1B0583B14FF00108069B01330693CC
:1052B000099B013309930E9B002B7FF46AAF0120F9
:1052C0006FE74FF00008F6E79846F4E73FF47DAF4C
:1052D00018461C3072E7029B002B36DC229B022B07
:1052E00033DDDDF808B0BBF1000F0DD121465B4680
:1052F0000522284600F048FD01460446504600F0CD
:10530000A5FF00283FF7B6AD239B089F6FEA03096E
:105310004FF000082146284600F014FD002E3FF40F
:10532000A4AEB8F1000F05D0B04503D041462846E1
:1053300000F008FD3146284600F004FD95E6002403
:105340002646E1E7C146264694E50B9BDDF808B00A
:10535000002B00F0FC80002F05DD31463A46284640
:1053600000F008FF0646B8F1000F5CD028467168CF
:1053700000F0A8FC074628B9024640F2EA217E4B1D
:10538000FFF726BB326906F10C01023292000C30A5
:1053900000F08AFC01223946284600F0EBFEB046B8
:1053A0000646089B01330293089B5B440A93049BC7
:1053B00003F001030993029B2146504603F1FF3B92
:1053C000FFF764FA034641463033049050460B938E
:1053D00000F03CFF324606902146284600F052FF7E
:1053E000C26807460B9B02BB0146504600F02EFFE9
:1053F00002460B9B39462846CDE90B3200F0A2FC51
:10540000229B0C9A029F43EA0201099B0B430B9BD0
:105410000DD1392B27D0069A002A01DD049B3133A8
:105420008BF8003076E73046B9E70122E2E70699CB
:10543000002904DB229801430998014320D1002A66
:10544000EEDD514601222846029300F093FE2146EC
:10545000824600F0FBFE0028029B02DCE0D1DA0766
:10546000DED5392BDAD139238BF800303B461F4685
:1054700017F8012C013B392A50D001321A7049E744
:10548000002A03DD392BEED00133C9E7029A0A99CD
:1054900002F8013C8A422AD0514600230A222846BB
:1054A00000F072FCB04582464FF000034FF00A0254
:1054B0004146284607D100F067FC80460646029B1D
:1054C0000133029377E700F05FFC3146804600230A
:1054D0000A22284600F058FC0646F0E7BBF1000F10
:1054E000CCBF5F4601274FF00008089A1744514689
:1054F00001222846029300F03DFE2146824600F03C
:10550000A5FE0028B2DC02D1029BDB07AED43B46ED
:105510001F4613F8012D302AFAD0FBE6089A9A426A
:10552000A5D1312309F101091370F3E6134BFFF7FD
:10553000A7BA269B002B7FF480AA114BFFF7A0BAD5
:10554000BBF1000F03DC229B022B3FF7CCAE089F80
:1055500021465046FFF79AF9089A00F1300307F800
:10556000013BBA1A9345B9DD514600230A22284669
:1055700000F00AFC8246EBE79C7800089876000869
:105580001978000803692DE9F043B3EB611F00F1BE
:1055900014044FEA611246DD11F01F0104EB83068B
:1055A00004EB82050CD1294600F11007B14235D336
:1055B0009B1A9B00EA1E964238BF0023234415E045
:1055C000A14654F82270C1F12008CF4005F1040E25
:1055D0007645F44616D89B1A9A00043A0135AE4235
:1055E00038BF0022A318A75007B10433A342A3EB8E
:1055F000040208BF00234FEAA202026108BF436110
:10560000BDE8F083DCF800C00CFA08FC4CEA0707A0
:1056100049F8047B5EF8047BCF40D9E751F804CB0E
:1056200047F804CFC2E72346E0E7A0F13003092B97
:1056300002D82038C0B27047A0F16103052B01D811
:105640004738F7E7A0F14103052B01D82738F1E7E8
:10565000002070472DE9F04F8BB00693B94B0290B4
:105660001B688B46184690460393FAF771FD8246F5
:10567000039BDBF80020034413F8013C0793931CC1
:10568000C2F1FF2202F57F02FE32D1181F4613F845
:10569000010B01913028F8D0FFF7C7FF044600281E
:1056A0003AD152463846039901F0EAF905460028F6
:1056B00066D117F80A0007EB0A06FFF7B6FF0028C5
:1056C00060D0334618781F46302803F10103F9D023
:1056D000FFF7ABFF0123B0FA80F43546640901936C
:1056E0003A46164630780132FFF79FFF0028F8D17E
:1056F00052463046039901F0C3F980B94DB906EB23
:105700000A052A46164630780132FFF78EFF002838
:10571000F8D1AD1BAD0004E000242546E0E7002DE4
:10572000F7D1337803F0DF03502B39D173782B2B6B
:105730002AD02D2B2CD04FF00009711C0878FFF7D0
:1057400074FF431EDBB2182B2AD8A0F1100211F807
:10575000010FFFF76AFF431EDBB2182B1BD9B9F10B
:10576000000F00D052421544CBF80010D4B1019B79
:10577000002B14BF0027062738460BB0BDE8F08F7A
:105780003E4625460124CCE74FF00009B11CD5E781
:105790004FF00109FAE70A2303FB0202103AD6E7A9
:1057A0003146E1E72146F31B013B072B0ADC029857
:1057B00000F088FA044640B90246DE21624B634895
:1057C00001F07EF901315B10EFE74FF0000B00F1C3
:1057D0001409CAF10103CDF81090CDF804B0089374
:1057E000B7423FD3049F019B47F8043BA7EB09074F
:1057F000BF102761184600F05BFB7F01D8F80060FE
:105800003F1AB74262DDBF1B3946204600F0F1FE69
:105810008246A8B14FF0010A7B1E591159F8211098
:1058200003F01F020AFA02F20A4209D0534505DDCD
:105830002046B91E00F0DDFE002844D14FF0020AD8
:1058400039462046FFF79EFE3D44D8F80830AB426B
:105850004ADA2146029800F075FA0023149AA32729
:10586000136089E7731E079A059316F8013C93426B
:1058700019D0BBF1200F07D1049B019A43F8042BE8
:10588000049300239B46019316F8010CFFF7CDFE0D
:10589000019B00F00F0000FA0BF0034301930BF1A2
:1058A000040B059B0DE0059B089A1344BB42E0D313
:1058B000184652460399099301F0E2F8099B002823
:1058C000D7D11E468CE74FF0030AB9E709DAF71B78
:1058D00021463A46029800F04DFC0446ED1B00F1CB
:1058E00014094FF0000AB0E7D8F80400A84271DDAF
:1058F000451BAE4234DCD8F80C30022B28D0032BE9
:105900002AD0012B15D1AE4213D1012E0BD1D8F8DC
:105910000430069A6227136001232361C9F800301E
:10592000149B1C6028E72046711E00F062FE0028D0
:10593000EDD12146029800F005FA0023149A502771
:10594000136019E7187900089C780008AD78000802
:10595000159B002BEDD1DAE7159B002BD7D1E8E79B
:105960006F1EBAF1000F32D127B13946204600F040
:1059700040FE824601217B1159F8233007F01F07B2
:1059800001FA07F71F424FF002072946204618BFC9
:105990004AF0020A761BFFF7F5FDD8F80450BAF179
:1059A000000F48D0D8F80C30022B15D0032B17D09D
:1059B000012B09D11AF0020F06D0D9F800004AEAEB
:1059C000000A1AF0010F0ED147F0100733E04FF034
:1059D000010ACFE70127E2E7159BC3F10103159305
:1059E000159B002BF0D04FF0000CD4F810B004F150
:1059F00014034FEA8B0A03EB8B01184653F8042B70
:105A0000B2F1FF3F1CD001320260022F04F11403F7
:105A10003DD1D8F80020013AB2420AD101227111D9
:105A200053F8213006F01F0602FA06F61E4218BF90
:105A3000174647F02007149B1C60069B1D609BE6E1
:105A4000994243F804CCD8D8A3689B4517DB61681A
:105A50000298013100F036F9814618B902468421D6
:105A6000194BACE6226904F10C01023292000C30B1
:105A700000F01AF92146029800F064F94C462369B7
:105A80005A1C2261012204EB83035A61BDE722699B
:105A90005A450BDD01212046FFF774FDD8F8083088
:105AA0000135AB42FFF6D5AE0127C2E716F01F065F
:105AB000FAD09A445AF8040C00F0FAF9C6F120061C
:105AC000B042E7DBF0E700BF9C780008C2F10802B3
:105AD000920070B5C2F120064368046803FA06F527
